:03000000020026D5
:0E00230002003F75892078307534FD85348DDC
:0E00310075985075A89079007A00D28E80FEE6
:10003F00209978BA0002806EBA0107AB99E92BF9C3
:10004F008064BA020DAE998E83E92583F9EEF60826
:10005F008054BA030DAF998F82E92582F9EFF60824
:10006F008044BA041CE599B4011185316085306173
:0F007F0012020B75606012019B8033E92599F91D
:0F008E008025BB0017E9F42401F97AFF7900C33C
:0F009D009599B4000280118E838F82800BE599B4
:1000AC001218ADE92599F9A31B0AC3C29832C2995B
:1000BC00321202A2B41FFA90DDDD74021218ADF0F8
:0E00CC00A3E5301218ADF0A3E5311218ADF027
:0300DA0002DDDD67
:00000001FF
